:100000000C942A000C947E000C948C000C949A00A2
:100010000C94B3000C94B3000C94B3000C94B30094
:100020000C94B3000C94B3000C94B3000C94B30084
:100030000C94B3000C94B3000C94B3000C94B30074
:100040000C94B3000C94B3000C94B3000C94B30064
:100050000C94B30011241FBECFE5D8E0DEBFCDBFA6
:0C0060000E9436000C94A800F894FFCF1A
:10006C0081B392B3806292BB81BB81B392B3806443
:10007C0092BB81BB81B392B3806892BB81BB85B7C5
:10008C0096B7816096BF85BF85B796B78D7F96BFB3
:10009C0085BF85B796B7846096BF85BF85B796B781
:1000AC00886096BF85BF85B796B7806496BF85BFBD
:1000BC008BB79CB780629CBF8BBF8BB79CB780649F
:1000CC009CBF8BBF8BB79CB780689CBF8BBF789451
:1000DC0081B392B38F7D92BB81BB81B392B38F7B83
:1000EC0092BB81BB81B392B38F7792BB81BBF0CFB4
:1000FC0081B392B3806292BB81BB80E090E001C07F
:0C010C000196883E23E09207DCF3089582
:1001180081B392B3806492BB81BB80E090E001C060
:0C0128000196883E23E09207DCF3089566
:1001340081B392B3806892BB81BB80E090E001C040
:0C0144000196883E23E09207DCF308954A
:10015000EC010E94B8000E94B700CE010E94B900D5
:06016000CE010E94B50073
:040166000C940000F5
:04016A000E943400BB
:02016E000895F2
:020170000895F0
:020172000895EE
:00000001FF
