S00D00005461736B312E7372656353
S11300000C942A000C9434000C9434000C943400A6
S11300100C9434000C9434000C9434000C9434008C
S11300200C9434000C9434000C9434000C9434007C
S11300300C9434000C9434000C9434000C9434006C
S11300400C9434000C9434000C9434000C9434005C
S11300500C94340011241FBECFE5D8E0DEBFCDBF21
S11300600E9436000C946E000C9400008FEF8ABB43
S113007020E030E016C04BB381E090E0022E02C0D5
S1130080880F991F0A94E2F7842B8BBB4FE986E80B
S113009091E0415080409040E1F700C000002F5FA4
S11300A03F4F2830310538F347E050E02BB381E06F
S11300B090E0042E02C0880F991F0A94E2F78095FD
S11300C082238BBB2FE986E891E021508040904049
S11300D0E1F700C0000041505109E8CFF894FFCF88
S9030000FC
