:100000000C942A000C943F000C943F000C943F0089
:100010000C943F000C943F000C943F000C943F0064
:100020000C943F000C943F000C943F000C943F0054
:100030000C943F000C943F000C943F000C943F0044
:100040000C943F000C943F000C943F000C943F0034
:100050000C943F0011241FBECFE5D8E0DEBFCDBF1A
:1000600010E0A0E6B0E0E0E3F2E002C005900D92FF
:10007000A037B107D9F70E940F010C9416010C9418
:10008000000088B3886088BB83ED90E30197F1F7A7
:1000900000C0000088B3877F88BB08958AB38F7043
:1000A0008ABB88B3846088BB88B38D7F88BB0E947D
:1000B00041008AB3806F8ABB88B38B7F88BB089569
:1000C000CF93C82F0E944E008BB38F709C2F907FD0
:1000D000892B8BBB88B3897F88BB0E9441002BB3DF
:1000E00030E1C39FC0011124922F9F70892B8BBBDD
:1000F00088B3897F88BB0E944100CF91089581E039
:100100000E9460000895CF93DF93C82FD62F8130CF
:1001100031F4603120F480E8860F0E946000C23024
:1001200031F4D03120F480EC8D0F0E946000DF911B
:10013000CF91089587E893E10197F1F700C000009F
:1001400087B38E6087BB88B3817F88BB8FEF8ABB04
:1001500085EA9EE00197F1F700C000000E947F0051
:1001600081E00E94600082E00E94600088E20E94BC
:10017000600086E00E94600080E80E9460008FE0DE
:100180000E9460000895CF93C82F8BB38F709C2F6F
:10019000907F892B8BBB88B3826088BB88B38B7FB1
:1001A00088BB0E9441002BB330E1C39FC0011124E2
:1001B000922F9F70892B8BBB88B3826088BB88B3DA
:1001C0008B7F88BB0E944100CF9108950F931F93AE
:1001D000CF93DF938C01C0E0D0E018C021960F5F71
:1001E0001F4F0E94C300C031D10529F460E082E0B6
:1001F0000E9483000BC0C032D10541F40E947F00F1
:1002000060E081E00E948300C0E0D0E0F8018081DE
:100210008111E4CFDF91CF911F910F9108950E943A
:100220009A0080E690E00E94E600FFCFF894FFCFAE
:100230004C6561726E2D696E2D6465707468000086
:00000001FF
