:100000000C942A000C9434000C9434000C943400AA
:100010000C9434000C9434000C9434000C94340090
:100020000C9434000C9434000C9434000C94340080
:100030000C9434000C9434000C9434000C94340070
:100040000C9434000C9434000C9434000C94340060
:100050000C94340011241FBECFE5D8E0DEBFCDBF25
:100060000E9436000C9461000C9400008FEF8ABB54
:1000700084B38E7F84BB85B3816085BB20E0989973
:10008000FECF83ED90E30197F1F700C0000098994F
:10009000F6CF3BB381E090E0022E02C0880F991F9B
:1000A0000A94E2F7832B8BBB2F5F989BFECF83EDE7
:1000B00090E30197F1F700C00000283000F31BBA6D
:0600C000DDCFF894FFCF34
:00000001FF
